{
  "contractName": "Ballot",
  "abi": [
    {
      "inputs": [
        {
          "internalType": "address",
          "name": "",
          "type": "address"
        }
      ],
      "name": "borrowed",
      "outputs": [
        {
          "internalType": "uint256",
          "name": "",
          "type": "uint256"
        }
      ],
      "stateMutability": "view",
      "type": "function"
    },
    {
      "inputs": [
        {
          "internalType": "address",
          "name": "",
          "type": "address"
        }
      ],
      "name": "projects",
      "outputs": [
        {
          "internalType": "bytes32",
          "name": "projectName",
          "type": "bytes32"
        },
        {
          "internalType": "uint256",
          "name": "amountNeeded",
          "type": "uint256"
        },
        {
          "internalType": "uint256",
          "name": "voteCount",
          "type": "uint256"
        }
      ],
      "stateMutability": "view",
      "type": "function"
    },
    {
      "inputs": [
        {
          "internalType": "address",
          "name": "",
          "type": "address"
        }
      ],
      "name": "voters",
      "outputs": [
        {
          "internalType": "uint256",
          "name": "weight",
          "type": "uint256"
        },
        {
          "internalType": "address",
          "name": "delegate",
          "type": "address"
        },
        {
          "internalType": "uint256",
          "name": "balance",
          "type": "uint256"
        }
      ],
      "stateMutability": "view",
      "type": "function"
    },
    {
      "inputs": [
        {
          "internalType": "bytes32",
          "name": "projectName",
          "type": "bytes32"
        },
        {
          "internalType": "address",
          "name": "projectAddress",
          "type": "address"
        },
        {
          "internalType": "uint256",
          "name": "amountNeeded",
          "type": "uint256"
        }
      ],
      "name": "addProject",
      "outputs": [],
      "stateMutability": "nonpayable",
      "type": "function"
    },
    {
      "inputs": [
        {
          "internalType": "address",
          "name": "sender",
          "type": "address"
        }
      ],
      "name": "hasRightToVote",
      "outputs": [],
      "stateMutability": "nonpayable",
      "type": "function"
    },
    {
      "inputs": [
        {
          "internalType": "address",
          "name": "projectAddress",
          "type": "address"
        }
      ],
      "name": "vote",
      "outputs": [],
      "stateMutability": "nonpayable",
      "type": "function"
    },
    {
      "inputs": [
        {
          "internalType": "address",
          "name": "projectAddress",
          "type": "address"
        }
      ],
      "name": "canBorrow",
      "outputs": [
        {
          "internalType": "bool",
          "name": "",
          "type": "bool"
        }
      ],
      "stateMutability": "view",
      "type": "function"
    },
    {
      "inputs": [
        {
          "internalType": "address",
          "name": "projectAddress",
          "type": "address"
        }
      ],
      "name": "checkProjectAllowance",
      "outputs": [
        {
          "internalType": "uint256",
          "name": "",
          "type": "uint256"
        }
      ],
      "stateMutability": "view",
      "type": "function"
    }
  ],
  "bytecode": "0x608060405234801561001057600080fd5b5061090b806100206000396000f3fe608060405234801561001057600080fd5b50600436106100885760003560e01c80636dd7d8ea1161005b5780636dd7d8ea146101db578063840e78fd1461021f5780639fb80e0514610285578063a3ec138d146102dd57610088565b80630941cb3d1461008d5780630e7fc864146100e55780635dc7a0e01461013f57806365c9376914610197575b600080fd5b6100cf600480360360208110156100a357600080fd5b81019080803573ffffffffffffffffffffffffffffffffffffffff169060200190929190505050610359565b6040518082815260200191505060405180910390f35b610127600480360360208110156100fb57600080fd5b81019080803573ffffffffffffffffffffffffffffffffffffffff169060200190929190505050610371565b60405180821515815260200191505060405180910390f35b6101956004803603606081101561015557600080fd5b8101908080359060200190929190803573ffffffffffffffffffffffffffffffffffffffff169060200190929190803590602001909291905050506103c0565b005b6101d9600480360360208110156101ad57600080fd5b81019080803573ffffffffffffffffffffffffffffffffffffffff1690602001909291905050506104bd565b005b61021d600480360360208110156101f157600080fd5b81019080803573ffffffffffffffffffffffffffffffffffffffff16906020019092919050505061058d565b005b6102616004803603602081101561023557600080fd5b81019080803573ffffffffffffffffffffffffffffffffffffffff1690602001909291905050506107c8565b60405180848152602001838152602001828152602001935050505060405180910390f35b6102c76004803603602081101561029b57600080fd5b81019080803573ffffffffffffffffffffffffffffffffffffffff1690602001909291905050506107f2565b6040518082815260200191505060405180910390f35b61031f600480360360208110156102f357600080fd5b81019080803573ffffffffffffffffffffffffffffffffffffffff169060200190929190505050610856565b604051808481526020018373ffffffffffffffffffffffffffffffffffffffff168152602001828152602001935050505060405180910390f35b60036020528060005260406000206000915090505481565b60006042600260008473ffffffffffffffffffffffffffffffffffffffff1673ffffffffffffffffffffffffffffffffffffffff16815260200190815260200160002060020154119050919050565b8173ffffffffffffffffffffffffffffffffffffffff163373ffffffffffffffffffffffffffffffffffffffff161461043c576040517f08c379a0000000000000000000000000000000000000000000000000000000008152600401808060200182810382526000815260200160200191505060405180910390fd5b60405180606001604052808481526020018281526020016000815250600260008473ffffffffffffffffffffffffffffffffffffffff1673ffffffffffffffffffffffffffffffffffffffff168152602001908152602001600020600082015181600001556020820151816001015560408201518160020155905050505050565b6000600160008373ffffffffffffffffffffffffffffffffffffffff1673ffffffffffffffffffffffffffffffffffffffff1681526020019081526020016000209050600081600301541161055d576040517f08c379a00000000000000000000000000000000000000000000000000000000081526004018080602001828103825260358152602001806108a16035913960400191505060405180910390fd5b600081600001541461056e57600080fd5b60005460648260030154028161058057fe5b0481600001819055505050565b610596336104bd565b6000600160003373ffffffffffffffffffffffffffffffffffffffff1673ffffffffffffffffffffffffffffffffffffffff1681526020019081526020016000209050600081600001541415610654576040517f08c379a00000000000000000000000000000000000000000000000000000000081526004018080602001828103825260148152602001807f486173206e6f20726967687420746f20766f746500000000000000000000000081525060200191505060405180910390fd5b8060010160008373ffffffffffffffffffffffffffffffffffffffff1673ffffffffffffffffffffffffffffffffffffffff16815260200190815260200160002060009054906101000a900460ff1615610716576040517f08c379a000000000000000000000000000000000000000000000000000000000815260040180806020018281038252600e8152602001807f416c726561647920766f7465642e00000000000000000000000000000000000081525060200191505060405180910390fd5b60018160010160008473ffffffffffffffffffffffffffffffffffffffff1673ffffffffffffffffffffffffffffffffffffffff16815260200190815260200160002060006101000a81548160ff0219169083151502179055508060000154600260008473ffffffffffffffffffffffffffffffffffffffff1673ffffffffffffffffffffffffffffffffffffffff168152602001908152602001600020600201600082825401925050819055505050565b60026020528060005260406000206000915090508060000154908060010154908060020154905083565b60006107fd82610371565b1561084c57600260008373ffffffffffffffffffffffffffffffffffffffff1673ffffffffffffffffffffffffffffffffffffffff168152602001908152602001600020600101549050610851565b600090505b919050565b60016020528060005260406000206000915090508060000154908060020160009054906101000a900473ffffffffffffffffffffffffffffffffffffffff1690806003015490508356fe4f6e6c7920706572736f6e732077686f206861766520636f6c6c61746572616c20696e2074686520706f6f6c2063616e20766f7465a264697066735822122021aae890512671ef3cfec5beb53aa32100bbab10d59162a029ffeb0900bc8ab964736f6c634300060c0033",
  "immutableReferences": {},
  "source": "// SPDX-License-Identifier: agpl-3.0\npragma solidity >=0.6.12;\n\n/// @title Voting with delegation.\ncontract Ballot {\n\n\tstruct Voter {\n\t\tuint weight;\n\t\tmapping(address => bool) voted;\n\t\taddress delegate;\n\t\tuint balance;\n\t}\n\n\tstruct Project {\n\t\tbytes32 projectName;\n\t\tuint amountNeeded;\n\t\tuint voteCount;\n\t}\n\n\t// Total amount of collateral deposited in the pool by users of the dapp\n\tuint256 totalDeposited;\n\n\tmapping(address => Voter) public voters;\n\tmapping(address => Project) public projects;\n\n\tmapping(address => uint256) public borrowed;\n\n\t// Maybe add a way to allow some projects to propose a proposal or not\n\tfunction addProject(bytes32 projectName, address projectAddress, uint256 amountNeeded) public {\n\t\trequire(msg.sender == projectAddress, \"\");\n\t\tprojects[projectAddress] = Project({\n\t\t\tprojectName: projectName,\n\t\t\tamountNeeded: amountNeeded,\n\t\t\tvoteCount: 0\n\t\t});\n\t}\n\n\tfunction hasRightToVote(address sender) public {\n\t\tVoter storage voter = voters[sender];\n\t\trequire(\n\t\t\tvoter.balance > 0,\n\t\t\t\"Only persons who have collateral in the pool can vote\"\n\t\t);\n\t\trequire(voter.weight == 0);\n\t\tvoter.weight = (voter.balance * 100) / totalDeposited;\n\t}\n\n\t// function delegate(address to) public {\n\t// \tVoter storage sender = voters[msg.sender];\n\t// \trequire(!sender.voted, \"You already voted.\");\n\n\t// \trequire(to != msg.sender, \"Self-delegation is disallowed.\");\n\n\t// \twhile (voters[to].delegate != address(0)) {\n\t// \t\tto = voters[to].delegate;\n\n\t// \t\trequire(to != msg.sender, \"Found loop in delegation.\");\n\t// \t}\n\n\t// \tsender.voted = true;\n\t// \tsender.delegate = to;\n\t// \tVoter storage delegate_ = voters[to];\n\t// \tif (delegate_.voted[projectAddress]) {\n\t// \t\tproposals[delegate_.vote].voteCount += sender.weight;\n\t// \t} else {\n\t// \t\tdelegate_.weight += sender.weight;\n\t// \t}\n\t// }\n\n\tfunction vote(address projectAddress) public {\n\t\thasRightToVote(msg.sender);\n\t\tVoter storage sender = voters[msg.sender];\n\t\trequire(sender.weight != 0, \"Has no right to vote\");\n\t\trequire(!sender.voted[projectAddress], \"Already voted.\");\n\t\tsender.voted[projectAddress] = true;\n\n\t\tprojects[projectAddress].voteCount += sender.weight;\n\t}\n\n\tfunction canBorrow(address projectAddress) public view returns(bool) {\n\t\treturn projects[projectAddress].voteCount > 66;\n\t}\n\n\tfunction checkProjectAllowance(address projectAddress) public view returns(uint256) {\n\t\tif (canBorrow(projectAddress)) {\n\t\t\treturn projects[projectAddress].amountNeeded;\n\t\t} else {\n\t\t\treturn 0;\n\t\t}\n\t}\n}",
  "sourcePath": "/Users/merlinegalite/Desktop/Code/Projects/TheCoolProject/the-cool-project-contracts/contracts/Ballot.sol",
  "compiler": {
    "name": "solc",
    "version": "0.6.12+commit.27d51765.Emscripten.clang"
  },
  "schemaVersion": "3.2.4",
  "updatedAt": "2021-01-25T13:20:56.022Z",
  "devdoc": {
    "kind": "dev",
    "methods": {},
    "title": "Voting with delegation.",
    "version": 1
  },
  "userdoc": {
    "kind": "user",
    "methods": {},
    "version": 1
  }
}